{"abi":[{"type":"function","name":"One27","inputs":[],"outputs":[{"name":"","type":"uint256","internalType":"uint256"}],"stateMutability":"view"},{"type":"function","name":"rpow","inputs":[{"name":"x","type":"uint256","internalType":"uint256"},{"name":"n","type":"uint256","internalType":"uint256"},{"name":"base","type":"uint256","internalType":"uint256"}],"outputs":[{"name":"z","type":"uint256","internalType":"uint256"}],"stateMutability":"pure"},{"type":"error","name":"Int128_Overflow","inputs":[]},{"type":"error","name":"MulDiv_Overflow","inputs":[]},{"type":"error","name":"Uint128_Overflow","inputs":[]},{"type":"error","name":"Uint16_Overflow","inputs":[]},{"type":"error","name":"Uint32_Overflow","inputs":[]},{"type":"error","name":"Uint64_Overflow","inputs":[]},{"type":"error","name":"Uint8_Overflow","inputs":[]},{"type":"error","name":"Uint96_Overflow","inputs":[]}],"bytecode":{"object":"0x6080806040523460185760fc908161001d823930815050f35b5f80fdfe608060405260043610156010575f80fd5b5f3560e01c806367b870af146030576372b0c01514602c575f80fd5b60dc565b606036600319011260bf5760243560043560443581801560ca57600184161560c357925b8160011c9060011c92835b607457505050505b608052607f1960a0016080f35b808002908082040360bf5781810190811060bf578290049260018116609d575b60011c9283605f565b938381029084820414158415151660bf5781810190811060bf57829004936094565b5f80fd5b5080926054565b509115905060d857505f6067565b6067565b5f36600319011260bf57604051676765c793fa10079d601b1b8152602090f3","linkReferences":{}},"methodIdentifiers":{"One27()":"72b0c015","rpow(uint256,uint256,uint256)":"67b870af"},"id":41}