{"abi":[{"type":"constructor","inputs":[{"name":"poolId_","type":"uint64","internalType":"PoolId"},{"name":"contractUpdater_","type":"address","internalType":"address"},{"name":"gateway_","type":"address","internalType":"contract IGateway"}],"stateMutability":"nonpayable"},{"type":"receive","stateMutability":"payable"},{"type":"function","name":"activeStrategist","inputs":[],"outputs":[{"name":"","type":"address","internalType":"address"}],"stateMutability":"view"},{"type":"function","name":"callbackIdx","inputs":[],"outputs":[{"name":"","type":"uint256","internalType":"uint256"}],"stateMutability":"view"},{"type":"function","name":"computeScriptHash","inputs":[{"name":"commands","type":"bytes32[]","internalType":"bytes32[]"},{"name":"state","type":"bytes[]","internalType":"bytes[]"},{"name":"stateBitmap","type":"uint128","internalType":"uint128"},{"name":"callbacks","type":"tuple[]","internalType":"struct IOnchainPM.Callback[]","components":[{"name":"hash","type":"bytes32","internalType":"bytes32"},{"name":"caller","type":"address","internalType":"address"}]}],"outputs":[{"name":"","type":"bytes32","internalType":"bytes32"}],"stateMutability":"pure"},{"type":"function","name":"contractUpdater","inputs":[],"outputs":[{"name":"","type":"address","internalType":"address"}],"stateMutability":"view"},{"type":"function","name":"execute","inputs":[{"name":"commands","type":"bytes32[]","internalType":"bytes32[]"},{"name":"state","type":"bytes[]","internalType":"bytes[]"},{"name":"stateBitmap","type":"uint128","internalType":"uint128"},{"name":"callbacks","type":"tuple[]","internalType":"struct IOnchainPM.Callback[]","components":[{"name":"hash","type":"bytes32","internalType":"bytes32"},{"name":"caller","type":"address","internalType":"address"}]},{"name":"proof","type":"bytes32[]","internalType":"bytes32[]"}],"outputs":[],"stateMutability":"payable"},{"type":"function","name":"executeCallback","inputs":[{"name":"commands","type":"bytes32[]","internalType":"bytes32[]"},{"name":"state","type":"bytes[]","internalType":"bytes[]"},{"name":"stateBitmap","type":"uint128","internalType":"uint128"}],"outputs":[],"stateMutability":"nonpayable"},{"type":"function","name":"executeMulticall","inputs":[{"name":"data","type":"bytes[]","internalType":"bytes[]"}],"outputs":[],"stateMutability":"payable"},{"type":"function","name":"gateway","inputs":[],"outputs":[{"name":"","type":"address","internalType":"contract IGateway"}],"stateMutability":"view"},{"type":"function","name":"multicall","inputs":[{"name":"data","type":"bytes[]","internalType":"bytes[]"}],"outputs":[],"stateMutability":"payable"},{"type":"function","name":"policy","inputs":[{"name":"strategist","type":"address","internalType":"address"}],"outputs":[{"name":"root","type":"bytes32","internalType":"bytes32"}],"stateMutability":"view"},{"type":"function","name":"poolId","inputs":[],"outputs":[{"name":"","type":"uint64","internalType":"PoolId"}],"stateMutability":"view"},{"type":"function","name":"trustedCall","inputs":[{"name":"poolId_","type":"uint64","internalType":"PoolId"},{"name":"","type":"bytes16","internalType":"ShareClassId"},{"name":"payload","type":"bytes","internalType":"bytes"}],"outputs":[],"stateMutability":"nonpayable"},{"type":"event","name":"ExecuteCallback","inputs":[{"name":"strategist","type":"address","indexed":true,"internalType":"address"},{"name":"scriptHash","type":"bytes32","indexed":false,"internalType":"bytes32"}],"anonymous":false},{"type":"event","name":"ExecuteScript","inputs":[{"name":"strategist","type":"address","indexed":true,"internalType":"address"},{"name":"scriptHash","type":"bytes32","indexed":false,"internalType":"bytes32"}],"anonymous":false},{"type":"event","name":"UpdatePolicy","inputs":[{"name":"strategist","type":"address","indexed":true,"internalType":"address"},{"name":"oldRoot","type":"bytes32","indexed":false,"internalType":"bytes32"},{"name":"newRoot","type":"bytes32","indexed":false,"internalType":"bytes32"}],"anonymous":false},{"type":"error","name":"AlreadyBatching","inputs":[]},{"type":"error","name":"AlreadyExecuting","inputs":[]},{"type":"error","name":"CallFailedWithEmptyRevert","inputs":[]},{"type":"error","name":"CallbackExhausted","inputs":[]},{"type":"error","name":"ExecutionFailed","inputs":[{"name":"command_index","type":"uint256","internalType":"uint256"},{"name":"target","type":"address","internalType":"address"},{"name":"message","type":"string","internalType":"string"}]},{"type":"error","name":"InvalidCallback","inputs":[]},{"type":"error","name":"InvalidCallbackCaller","inputs":[]},{"type":"error","name":"InvalidPoolId","inputs":[]},{"type":"error","name":"InvalidProof","inputs":[]},{"type":"error","name":"NotAStrategist","inputs":[]},{"type":"error","name":"NotAuthorized","inputs":[]},{"type":"error","name":"NotInExecution","inputs":[]},{"type":"error","name":"PrefixNotZero","inputs":[]},{"type":"error","name":"SelfCallForbidden","inputs":[]},{"type":"error","name":"StateLengthOverflow","inputs":[]},{"type":"error","name":"UnauthorizedSender","inputs":[]},{"type":"error","name":"UnconsumedCallbacks","inputs":[]}],"bytecode":{"object":"0x60c0346100c457601f61244e38819003918201601f19168301916001600160401b038311848410176100c8578084926060946040528339810103126100c45780516001600160401b03811681036100c4576020820151916001600160a01b03831683036100c457604001516001600160a01b038116908190036100c4575f80546001600160a01b03191691909117905560805260a05260405161237190816100dd82396080518181816101340152610be3015260a0518181816108190152610c0c0152f35b5f80fd5b634e487b7160e01b5f52604160045260245ffdfe6080604052600436101561001a575b3615610018575f80fd5b005b5f3560e01c8063116191b6146100d95780633e0dc34e146100d4578063680bcf12146100cf57806381d00257146100ca5780638833cf0c146100c557806388632826146100c05780638a93ba58146100bb578063ac9650d8146100b6578063b5ea1b80146100b1578063e26f4669146100ac578063e4c830d2146100a75763ed15d9600361000e57610804565b6107de565b610734565b610631565b610561565b610500565b610497565b6103ec565b610270565b6101a9565b61011f565b6100f8565b5f9103126100e857565b5f80fd5b6001600160a01b031690565b346100e8575f3660031901126100e8575f546040516001600160a01b039091168152602090f35b346100e8575f3660031901126100e8576040517f00000000000000000000000000000000000000000000000000000000000000006001600160401b03168152602090f35b9181601f840112156100e8578235916001600160401b0383116100e8576020808501948460051b0101116100e857565b604435906001600160801b03821682036100e857565b60a03660031901126100e8576004356001600160401b0381116100e8576101d4903690600401610163565b906024356001600160401b0381116100e8576101f4903690600401610163565b6101ff929192610193565b60643592906001600160401b0384116100e857366023850112156100e8576004840135926001600160401b0384116100e8573660248560061b870101116100e857608435956001600160401b0387116100e857610018976102666024983690600401610163565b989097019461099b565b346100e85760603660031901126100e8576004356001600160401b0381116100e8576102a0903690600401610163565b90602435906001600160401b0382116100e857610397926102c861039d933690600401610163565b6102d3959195610193565b956102e1608083111561085e565b6102ed30331415610b04565b61030b6001600160a01b0361030360035c6100ec565b161515610b1a565b61039261038d60025c6103886103808961036e845f5160206123515f395f51905f526103406103398261164e565b8310610b30565b61036961036261035d845f5160206123115f395f51905f5261168f565b6100ec565b3314610b46565b6116a5565b9c88888c61037a610b5c565b94610f4b565b9a8b14610ba1565b610bb7565b610990565b6111b9565b91611336565b507fee046cabef9820ce8410429168ec052da4b28a9a4d29b0364a39a527379d3b786103e76001600160a01b036103d560035c6100ec565b60405194855216929081906020820190565b0390a2005b346100e85760603660031901126100e8576004356001600160401b03811681036100e8576024356001600160801b03198116036100e857604435906001600160401b0382116100e857366023830112156100e8576004820135906001600160401b0382116100e85736602483850101116100e8576024610018930190610bd3565b6001600160a01b038116036100e857565b6001600160a01b03165f90815260016020526040902090565b346100e85760203660031901126100e8576004356104b48161046d565b60018060a01b03165f526001602052602060405f2054604051908152f35b60206003198201126100e857600435906001600160401b0382116100e8576104fc91600401610163565b9091565b610509366104d2565b5f5c6001600160a01b031661054357610532915f805c6001600160a01b0319163317905d610cf0565b5f805c6001600160a01b031916905d005b6100189161055c335f5c6001600160a01b031614610ccf565b610cf0565b61056a366104d2565b906105886001600160a01b0361058160015c6100ec565b1615610d9a565b610591336108a0565b6105cf6105a161035d5f546100ec565b916105c1604051948592631152774b60e31b602085015260248401610dd0565b03601f198101845283610682565b803b156100e8576105f9915f916040518080958194630a750cd960e21b8352339060048401610e84565b039134905af1801561062c57610612575b6100186108c2565b806106205f61062693610682565b806100de565b5f61060a565b610ce5565b346100e8575f3660031901126100e857602060025c604051908152f35b634e487b7160e01b5f52604160045260245ffd5b604081019081106001600160401b0382111761067d57604052565b61064e565b601f909101601f19168101906001600160401b0382119082101761067d57604052565b6001600160401b03811161067d5760051b60200190565b9291926106c8826106a5565b936106d66040519586610682565b602085848152019260061b8201918183116100e857925b8284106106fa5750505050565b6040848303126100e8576020604091825161071481610662565b86358152828701356107258161046d565b838201528152019301926106ed565b346100e85760803660031901126100e8576004356001600160401b0381116100e857610764903690600401610163565b906024356001600160401b0381116100e857610784903690600401610163565b61078f929192610193565b606435939091906001600160401b0385116100e857366023860112156100e8576107da9561037a6107ca9636906024816004013591016106bc565b6040519081529081906020820190565b0390f35b346100e8575f3660031901126100e85760405160035c6001600160a01b03168152602090f35b346100e8575f3660031901126100e8576040517f00000000000000000000000000000000000000000000000000000000000000006001600160a01b03168152602090f35b1561084f57565b637db263cf60e11b5f5260045ffd5b1561086557565b638ce0bafd60e01b5f5260045ffd5b1561087b57565b633b69e52760e21b5f5260045ffd5b1561089157565b6309bde33960e01b5f5260045ffd5b6001805c6001600160a01b0319166001600160a01b039290921691909117905d565b6001805c6001600160a01b031916905d565b6003805c6001600160a01b0319166001600160a01b039290921691909117905d565b6003805c6001600160a01b031916905d565b60010190565b634e487b7160e01b5f52601160045260245ffd5b5f1981019190821161093057565b61090e565b601f1981019190821161093057565b634e487b7160e01b5f52603260045260245ffd5b91908110156109685760061b0190565b610944565b356109778161046d565b90565b1561098157565b63b302204f60e01b5f5260045ffd5b60025d565b5f60025d565b9496610a0d90610a129295610a056109b96109b461108e565b61047e565b54916109c6831515610848565b6109d3608089111561085e565b6109f06001600160a01b036109e960035c6100ec565b1615610874565b6109fb368c8e6106bc565b9088888b8d610f4b565b9a8b926110cd565b61088a565b610a22610a1d61108e565b6108d4565b5f5160206123115f395f51905f52955f5160206123515f395f51905f52955f5b818110610ac75750505092610a8e959492610397610a6393610a89966111b9565b50610a7960025c610a738361164e565b1461097a565b610a81610995565b610a896108f6565b61166e565b7f828b6b75f8eb36fc3f87cd02f72d10004ad3e4e75bbbf59d45519b2e45c8710d610ac26001600160a01b036103d561108e565b0390a2565b80610adf610ad86001938587610958565b358a61110f565b610afe610af86020610af2848789610958565b0161096d565b8b611151565b01610a42565b15610b0b57565b6330044a2f60e01b5f5260045ffd5b15610b2157565b633b545b4960e11b5f5260045ffd5b15610b3757565b633265679f60e11b5f5260045ffd5b15610b4d57565b6333b43e6360e21b5f5260045ffd5b60405190610b6b602083610682565b5f80835282815b828110610b7e57505050565b602090604051610b8d81610662565b5f81525f8382015282828501015201610b72565b15610ba857565b63f7a632f560e01b5f5260045ffd5b906001820180921161093057565b906004820180921161093057565b9091906001600160401b039081167f000000000000000000000000000000000000000000000000000000000000000090911603610cc0577f00000000000000000000000000000000000000000000000000000000000000006001600160a01b03163303610cb15781604091810103126100e8577f486f38329a21a3c9baf0b1f47784e0a71252f04e52a644d9481e8ffabd030d5c610c7760208335930135926116da565b91610c818361047e565b549281610c8d8261047e565b556040805194855260208501929092526001600160a01b0316929081908101610ac2565b63ea8e4eb560e01b5f5260045ffd5b63015f4fdd60e31b5f5260045ffd5b15610cd657565b630101292160e31b5f5260045ffd5b6040513d5f823e3d90fd5b5f8054909291906001600160a01b0316803b156100e8575f8091600460405180948193630366237560e61b83525af1801561062c57610d85575b50825c6001600160a01b0316610d6457610d549190835c6001600160a01b0319163317845d6116fd565b805c6001600160a01b031916905d565b610d8392610d7e9033905c6001600160a01b031614610ccf565b6116fd565b565b610d929193505f90610682565b5f915f610d2a565b15610da157565b631ccdbfa560e21b5f5260045ffd5b908060209392818452848401375f828201840152601f01601f1916010190565b9180602084016020855252604083019060408160051b85010193835f91601e1982360301905b848410610e07575050505050505090565b90919293949596603f198282030187528735838112156100e8578401602081019190356001600160401b0381116100e85780360383136100e857610e516020928392600195610db0565b99019701959401929190610df6565b805180835260209291819084018484015e5f828201840152601f01601f1916010190565b90610e9c602091949394604084526040840190610e60565b6001600160a01b03909416910152565b6001600160401b03811161067d57601f01601f191660200190565b929192610ed382610eac565b91610ee16040519384610682565b8294818452818301116100e8578281602093845f960137010152565b60206040818301928281528451809452019201905f5b818110610f205750505090565b8251805185526020908101516001600160a01b03168186015260409094019390920191600101610f13565b60405192959392602081019290916001600160fb1b0382116100e85782602091610f879360051b8091873781010301601f198101835282610682565b51902093610f94826106a5565b90610fa26040519283610682565b82825260208201908360051b8101903682116100e85790818794935b828410611046575050505091610fdb610ff19261104095946117ce565b92604051610fff81610ff1602082019485610efd565b03601f198101835282610682565b51902060408051602081019889529081019490945260809590951b6001600160801b03191660608401526070830152609082019390935291829060b0820190565b51902090565b939450919290919083356001600160401b0381116100e857820136601f820112156100e85760209161107f839236908481359101610ec7565b81520193019190879493610fbe565b60015c6001600160a01b03161515806110ba575b156110b65760015c6001600160a01b031690565b3390565b505f546001600160a01b031633146110a2565b90809392936110dd575b50501490565b60051b810190915b602083359182811160051b9081521852602060405f209201918183106110e5579150505f806110d7565b6040516020810191825260208152611128604082610682565b519020805c6001810180821161093057825d81018091116109305760018101809111610930575d565b610d83916001600160a01b03169061110f565b91908110156109685760051b81013590601e19813603018212156100e85701803591906001600160401b0383116100e85760200182360381136100e8579190565b80518210156109685760209160051b010190565b9190916111c5836106a5565b6111d26040519182610682565b838152601f196111e1856106a5565b015f5b81811061123257505080935f5b8181106111fe5750505050565b8061121661120f6001938588611164565b3691610ec7565b61122082866111a5565b5261122b81856111a5565b50016111f1565b8060606020809386010152016111e4565b91908110156109685760051b0190565b1561125a57565b60405162461bcd60e51b815260206004820152601660248201527556616c7565206d75737420626520333220627974657360501b6044820152606490fd5b6020815191015190602081106112ac575090565b5f199060200360031b1b1690565b3d156112e4573d906112cb82610eac565b916112d96040519384610682565b82523d5f602084013e565b606090565b604051906112f8604083610682565b60078252662ab735b737bbb760c91b6020830152565b9081526001600160a01b03909116602082015260606040820181905261097792910190610e60565b905f5b8181106113465750505090565b611351818385611243565b359061137f6113796113736113668560201b90565b6001600160f81b03191690565b60f81c90565b60ff1690565b9160408316159182611638576001019261139a848688611243565b356020905b60038316600181036114f357505f91829190602085166114dc576113ce916001600160e01b031987168c611933565b805190602001826001600160a01b0387165af1926113ea6112ba565b935b8490156114405750506080161561141d5761141892916114126113666109089360581b90565b87611e03565b611339565b9061141892956114336113666114399460581b90565b90611d58565b9360010190565b85925061144b6112e9565b94604481511161149b575b505090611488915f1461148c57925b60405163ef3dcb2f60e01b81529384936001600160a01b0316906004850161130e565b0390fd5b61149590610922565b92611465565b60206114b260046114ab84611b52565b9301611298565b03611456576114c360248301611298565b146114cf575b80611456565b60440193506114886114c9565b50607f6114ed9160f81c168a6111a5565b516113ce565b6002810361155657505f918291906020851661153f5761151e916001600160e01b031987168c611933565b8051906020016001600160a01b0386165afa926115396112ba565b936113ec565b50607f6115509160f81c168a6111a5565b5161151e565b600303611600575f9181611587611574607f869560f81c168d6111a5565b516115826020825114611253565b611298565b91602086161584146115d9576115a96115a36115bb9360081b90565b91610922565b906001600160e01b031988168d611933565b905b815191602001906001600160a01b0387165af1926115396112ba565b50607f6115f26113796113736113666115f99560081b90565b168b6111a5565b51906115bd565b60405162461bcd60e51b815260206004820152601060248201526f496e76616c69642063616c6c7479706560801b6044820152606490fd5b926006602883901b6001600160d01b031761139f565b6040516020810191825260208152611667604082610682565b5190205c90565b5f906040516020810191825260208152611689604082610682565b5190205d565b6001600160a01b03916116a1916116a5565b1690565b60405160208101918252602081526116be604082610682565b5190209081018091116109305760018101809111610930575c90565b6001600160601b0381166116ee5760601c90565b63e8bd165960e01b5f5260045ffd5b905f5b81811061170c57505050565b5f80611719838587611164565b9081604051928392833781018381520390305af46117356112ba565b90156117445750600101611700565b805190811561175257602001fd5b632b9e168960e21b5f5260045ffd5b5f1981146109305760010190565b90611779826106a5565b6117866040519182610682565b8281528092611797601f19916106a5565b0190602036910137565b80516020909101905f5b8181106117b85750505090565b82518452602093840193909201916001016117ab565b90915f905f5b835181101561180d576001811b85166001600160801b03166117f9575b6001016117d4565b91611805600191611761565b9290506117f1565b5091906118199061176f565b905f935f5b825181101561186e5760019081811b83166001600160801b0316611843575b0161181e565b61184d81856111a5565b516020815191012061186861186189611761565b98876111a5565b5261183d565b50505090915060405161104081610ff16020820180956117a1565b604051610160919061189b8382610682565b600a815291601f1901366020840137565b602081016020825282518091526040820191602060408360051b8301019401925f915b8383106118de57505050505090565b90919293946020806118fc600193603f198682030187528951610e60565b970193019301919392906118cf565b9061191582610eac565b6119226040519182610682565b8281528092611797601f1991610eac565b91939290935f5f915f92611945611889565b906060935f905b878210611aa1575b505061196261196791610bc5565b61190b565b9760208901525f9060248901925f955b87871061198957505050505050505050565b602087101561096857888b83891a6080811615611a7f5760fe81036119e45750505060208160019287526119d18d6119c083610bc5565b6119ca8b51610935565b918b611fb1565b875101601f1901955b0196019593611977565b60fd819794959697145f14611a19575092611a0d92868660019b948a9998978560209c52612107565b509791959095946119da565b60fc8103611a3b575092611a0d92868660019b948a9998978560209c52611fc3565b93611a78888293611a67602096607f6001999c9b9a1690611a5c82826111a5565b5151978895526111a5565b5190611a7285610bc5565b91611f9f565b01956119da565b60209250600193979150611a97607f8492168d6111a5565b51015181526119da565b9093959160208510156109685786851a60ff8114611b3e576080811615611b295760fe8103611b095750855115611ae7575b6020600191875101935b019694019061194c565b945060016020604051611b0081610ff18d8583016118ac565b96915050611ad3565b90611b1d9260019692602095968a8d611ed0565b95919390939294611add565b611b386020916001938c611e5d565b93611add565b509396509094929050611962611967611954565b9081516043198101818111610930579260445b828110611b7157505050565b815181101561096857818101602001516001600160f81b03191615611b9857600101611b65565b929350505060431981019081116109305790565b15611bb357565b60405162461bcd60e51b8152602060048201526013602482015272496e646578206f75742d6f662d626f756e647360681b6044820152606490fd5b15611bf557565b60405162461bcd60e51b815260206004820152602860248201525f5160206123315f395f51905f52604482015267287374617469632960c01b6064820152608490fd5b15611c3f57565b60405162461bcd60e51b815260206004820152602a60248201525f5160206123315f395f51905f52604482015269287661726961626c652960b01b6064820152608490fd5b6020818303126100e8578051906001600160401b0382116100e857019080601f830112156100e857815191611cb8836106a5565b92611cc66040519485610682565b80845260208085019160051b830101918383116100e85760208101915b838310611cf257505050505090565b82516001600160401b0381116100e857820185603f820112156100e857602081015191611d1e83610eac565b611d2b6040519182610682565b83815260408385010188106100e8575f602085819660408397018386015e83010152815201920191611ce3565b91908060f81c60ff8114611dfd576080811615611dc55760fe8103611d8d575050610977915060208082518301019101611c84565b602091611da3610fe092607f8751911610611bac565b82840193611db384865114611c38565b51601f1901845260f31c168301015290565b611df9929150607f1690611ddb84518310611bac565b611de86020825114611bee565b611df282856111a5565b52826111a5565b5090565b50505090565b9060f81c60ff8114611e58578251906020820180921161093057602092607f611e2e611e419461190b565b921691611e3b83836111a5565b526111a5565b51918051604084018184840160045afa5051910152565b505050565b611e6e90607f6020939416906111a5565b515103611e7b5760200190565b60405162461bcd60e51b815260206004820152602760248201527f537461746963207374617465207661726961626c6573206d75737420626520336044820152663220627974657360c81b6064820152608490fd5b90969594939260fd8103611ef0575095611eea9596612294565b90919293565b60fc8103611f04575095611eea95966121ad565b9196509194939291611f1991607f16906111a5565b515180151580611f94575b15611f30570160200191565b60405162461bcd60e51b815260206004820152603660248201527f44796e616d6963207374617465207661726961626c6573206d7573742062652060448201527561206d756c7469706c65206f6620333220627974657360501b6064820152608490fd5b50601f811615611f24565b916020809185930101920160045afa50565b910160200190829060400160045afa50565b9193959692905f94611fd588846111a5565b51936024600180878b019b019b0198820101915b60208910611ffa575b505050505050565b80891a60808116156120de5760fb81036120145750611ff2565b60fd819c92959a9499969b93979c145f1461206557509061203c92918b89528a858b89612107565b9260209a93926001928c969480919d939d97929d9e01970101985b019301979291939490611fe9565b60fc810361209f57509061208092918b89528a858b89611fc3565b9260209a93926001928c969480919d939d97929d9e0197010198612057565b6020898b8e6001959f9e9798966120d2607f869716948d611a676120c388886111a5565b515197889788978895526111a5565b019d0197010198612057565b60206001929397969499816120fb88607f999e99839616906111a5565b5101518b520198612057565b9392919094956001019460208610156109685760206121419781612130607f868b1a16856111a5565b510151602482890101520194611fc3565b929391929091602090910190565b1561215657565b60405162461bcd60e51b815260206004820152602960248201527f43616e6e6f74207573652073746174652066726f6d20696e736964652064796e604482015268616d6963207479706560b81b6064820152608490fd5b6001808501976020909601960194935f929091905b6020871061221b5760405162461bcd60e51b8152602060048201526024808201527f44796e616d6963207479706520776173206e6f742070726f7065726c7920636c6044820152631bdcd95960e21b6064820152608490fd5b80871a608081161561227c5760fb81036122435750505061223c90836111a5565b5293929190565b612263949561225c60fe839c949a969b959c141561214f565b888b611ed0565b9197909692939192916001906020905b019301956121c2565b61228e60209160019399969a85611e5d565b98612273565b92919093946001019360208510156109685760206122b7607f83881a16866111a5565b5151036122cb576020611eea9601936121ad565b60405162461bcd60e51b815260206004820152601d60248201527f4172726179206c656e677468206d7573742062652033322062797465730000006044820152606490fdfe492ad26b5bae78a23c963b638ba06162cbcf91a51fc7b3c26198a179486d59734f6e6c79206f6e652072657475726e2076616c7565207065726d697474656420a59dc3a8d5f9a3cf64d111a78d144c34eb0aca2eda2bab9c6b2d41b4346464db","linkReferences":{}},"methodIdentifiers":{"activeStrategist()":"e4c830d2","callbackIdx()":"b5ea1b80","computeScriptHash(bytes32[],bytes[],uint128,(bytes32,address)[])":"e26f4669","contractUpdater()":"ed15d960","execute(bytes32[],bytes[],uint128,(bytes32,address)[],bytes32[])":"680bcf12","executeCallback(bytes32[],bytes[],uint128)":"81d00257","executeMulticall(bytes[])":"8a93ba58","gateway()":"116191b6","multicall(bytes[])":"ac9650d8","policy(address)":"88632826","poolId()":"3e0dc34e","trustedCall(uint64,bytes16,bytes)":"8833cf0c"},"id":3}