{"abi":[{"type":"constructor","inputs":[{"name":"contractUpdater_","type":"address","internalType":"address"},{"name":"balanceSheet_","type":"address","internalType":"contract IBalanceSheet"},{"name":"gateway_","type":"address","internalType":"contract IGateway"}],"stateMutability":"nonpayable"},{"type":"function","name":"balanceSheet","inputs":[],"outputs":[{"name":"","type":"address","internalType":"contract IBalanceSheet"}],"stateMutability":"view"},{"type":"function","name":"contractUpdater","inputs":[],"outputs":[{"name":"","type":"address","internalType":"address"}],"stateMutability":"view"},{"type":"function","name":"gateway","inputs":[],"outputs":[{"name":"","type":"address","internalType":"contract IGateway"}],"stateMutability":"view"},{"type":"function","name":"newExecutor","inputs":[{"name":"poolId","type":"uint64","internalType":"PoolId"}],"outputs":[{"name":"","type":"address","internalType":"contract IExecutor"}],"stateMutability":"nonpayable"},{"type":"event","name":"DeployExecutor","inputs":[{"name":"poolId","type":"uint64","indexed":true,"internalType":"PoolId"},{"name":"executor","type":"address","indexed":true,"internalType":"address"}],"anonymous":false},{"type":"error","name":"InvalidPoolId","inputs":[]}],"bytecode":{"object":"0x60e0346100c157601f6128bc38819003918201601f19168301916001600160401b038311848410176100c5578084926060946040528339810103126100c1578051906001600160a01b03821682036100c1576020810151906001600160a01b03821682036100c15760400151916001600160a01b03831683036100c15760805260a05260c0526040516127e290816100da8239608051818181605d01526101fc015260a05181818160a50152610151015260c05181818160e901526102240152f35b5f80fd5b634e487b7160e01b5f52604160045260245ffdfe6080806040526004361015610012575f80fd5b5f3560e01c90816310f513531461011857508063116191b6146100d457806322285cf6146100905763ed15d96014610048575f80fd5b3461008c575f36600319011261008c576040517f00000000000000000000000000000000000000000000000000000000000000006001600160a01b03168152602090f35b5f80fd5b3461008c575f36600319011261008c576040517f00000000000000000000000000000000000000000000000000000000000000006001600160a01b03168152602090f35b3461008c575f36600319011261008c576040517f00000000000000000000000000000000000000000000000000000000000000006001600160a01b03168152602090f35b3461008c57602036600319011261008c576004356001600160401b038116919082900361008c576323dfde6360e11b81526020816004817f00000000000000000000000000000000000000000000000000000000000000006001600160a01b03165afa90811561028d575f916102f6575b50604051633194981d60e21b81526004810183905290602090829060249082906001600160a01b03165afa90811561028d575f916102bb575b50156102ac57604051612485908181016001600160401b038111828210176102985781606091859461035d83398481526001600160a01b037f0000000000000000000000000000000000000000000000000000000000000000811660208301527f00000000000000000000000000000000000000000000000000000000000000001660408201520301905ff590811561028d5760209160018060a01b031680604051927f6422fdc6716a1e35d690daaabec4359ac31e48e2285753d014649c34c2838aea5f80a38152f35b6040513d5f823e3d90fd5b634e487b7160e01b5f52604160045260245ffd5b63015f4fdd60e31b5f5260045ffd5b90506020813d6020116102ee575b816102d660209383610339565b8101031261008c5751801515810361008c57826101c2565b3d91506102c9565b90506020813d602011610331575b8161031160209383610339565b8101031261008c57516001600160a01b038116810361008c576020610189565b3d9150610304565b601f909101601f19168101906001600160401b038211908210176102985760405256fe60c0346100c457601f61248538819003918201601f19168301916001600160401b038311848410176100c8578084926060946040528339810103126100c45780516001600160401b03811681036100c4576020820151916001600160a01b03831683036100c457604001516001600160a01b038116908190036100c4575f80546001600160a01b03191691909117905560805260a0526040516123a890816100dd82396080518181816101340152610c1a015260a0518181816108360152610c430152f35b5f80fd5b634e487b7160e01b5f52604160045260245ffdfe6080604052600436101561001a575b3615610018575f80fd5b005b5f3560e01c8063116191b6146100d95780633e0dc34e146100d4578063680bcf12146100cf57806381d00257146100ca5780638833cf0c146100c557806388632826146100c05780638a93ba58146100bb578063ac9650d8146100b6578063b5ea1b80146100b1578063e26f4669146100ac578063e4c830d2146100a75763ed15d9600361000e57610821565b6107fb565b610751565b61064e565b61057e565b61051d565b6104b4565b610409565b610270565b6101a9565b61011f565b6100f8565b5f9103126100e857565b5f80fd5b6001600160a01b031690565b346100e8575f3660031901126100e8575f546040516001600160a01b039091168152602090f35b346100e8575f3660031901126100e8576040517f00000000000000000000000000000000000000000000000000000000000000006001600160401b03168152602090f35b9181601f840112156100e8578235916001600160401b0383116100e8576020808501948460051b0101116100e857565b604435906001600160801b03821682036100e857565b60a03660031901126100e8576004356001600160401b0381116100e8576101d4903690600401610163565b906024356001600160401b0381116100e8576101f4903690600401610163565b6101ff929192610193565b60643592906001600160401b0384116100e857366023850112156100e8576004840135926001600160401b0384116100e8573660248560061b870101116100e857608435956001600160401b0387116100e857610018976102666024983690600401610163565b98909701946109ce565b346100e85760603660031901126100e8576004356001600160401b0381116100e8576102a0903690600401610163565b90602435906001600160401b0382116100e8576103b56102c76103bb933690600401610163565b90946103af61039d6102d7610193565b936102e5608082111561087b565b6102f130331415610b3b565b61030f6001600160a01b0361030760025c6100ec565b161515610b51565b60035c9861039861039361036c8c5f5160206123485f395f51905f5261033e610337826117ad565b8310610b67565b61036761036061035b845f5160206123885f395f51905f526117ee565b6100ec565b3314610b7d565b611804565b9b61038e6103868c8b88888d610380610b93565b94610f82565b9d8e14610bd8565b610bee565b6109c3565b6111f0565b80926103a985836112e7565b96611495565b506112e7565b14610997565b7fee046cabef9820ce8410429168ec052da4b28a9a4d29b0364a39a527379d3b786104046001600160a01b036103f260025c6100ec565b60405194855216929081906020820190565b0390a2005b346100e85760603660031901126100e8576004356001600160401b03811681036100e8576024356001600160801b03198116036100e857604435906001600160401b0382116100e857366023830112156100e8576004820135906001600160401b0382116100e85736602483850101116100e8576024610018930190610c0a565b6001600160a01b038116036100e857565b6001600160a01b03165f90815260016020526040902090565b346100e85760203660031901126100e8576004356104d18161048a565b60018060a01b03165f526001602052602060405f2054604051908152f35b60206003198201126100e857600435906001600160401b0382116100e85761051991600401610163565b9091565b610526366104ef565b5f5c6001600160a01b03166105605761054f915f805c6001600160a01b0319163317905d610d27565b5f805c6001600160a01b031916905d005b61001891610579335f5c6001600160a01b031614610d06565b610d27565b610587366104ef565b906105a56001600160a01b0361059e60015c6100ec565b1615610dd1565b6105ae336108bd565b6105ec6105be61035b5f546100ec565b916105de604051948592631152774b60e31b602085015260248401610e07565b03601f19810184528361069f565b803b156100e857610616915f916040518080958194630a750cd960e21b8352339060048401610ebb565b039134905af180156106495761062f575b6100186108df565b8061063d5f6106439361069f565b806100de565b5f610627565b610d1c565b346100e8575f3660031901126100e857602060035c604051908152f35b634e487b7160e01b5f52604160045260245ffd5b604081019081106001600160401b0382111761069a57604052565b61066b565b601f909101601f19168101906001600160401b0382119082101761069a57604052565b6001600160401b03811161069a5760051b60200190565b9291926106e5826106c2565b936106f3604051958661069f565b602085848152019260061b8201918183116100e857925b8284106107175750505050565b6040848303126100e857602060409182516107318161067f565b86358152828701356107428161048a565b8382015281520193019261070a565b346100e85760803660031901126100e8576004356001600160401b0381116100e857610781903690600401610163565b906024356001600160401b0381116100e8576107a1903690600401610163565b6107ac929192610193565b606435939091906001600160401b0385116100e857366023860112156100e8576107f7956103806107e79636906024816004013591016106d9565b6040519081529081906020820190565b0390f35b346100e8575f3660031901126100e85760405160025c6001600160a01b03168152602090f35b346100e8575f3660031901126100e8576040517f00000000000000000000000000000000000000000000000000000000000000006001600160a01b03168152602090f35b1561086c57565b637db263cf60e11b5f5260045ffd5b1561088257565b638ce0bafd60e01b5f5260045ffd5b1561089857565b633b69e52760e21b5f5260045ffd5b156108ae57565b6309bde33960e01b5f5260045ffd5b6001805c6001600160a01b0319166001600160a01b039290921691909117905d565b6001805c6001600160a01b031916905d565b6002805c6001600160a01b0319166001600160a01b039290921691909117905d565b6002805c6001600160a01b031916905d565b60010190565b634e487b7160e01b5f52601160045260245ffd5b5f1981019190821161094d57565b61092b565b601f1981019190821161094d57565b634e487b7160e01b5f52603260045260245ffd5b91908110156109855760061b0190565b610961565b356109948161048a565b90565b1561099e57565b634d6b922760e11b5f5260045ffd5b156109b457565b63b302204f60e01b5f5260045ffd5b60035d565b5f60035d565b9496610a3e610a439188610a36898989898f99610380819d9c9b6109f86109f36110c5565b61049b565b5498610a058a1515610865565b610a12608087111561087b565b610a2f6001600160a01b03610a2860025c6100ec565b1615610891565b36916106d9565b9b8c92611104565b6108a7565b610a53610a4e6110c5565b6108f1565b5f5160206123885f395f51905f52965f5160206123485f395f51905f52965f5b818110610afe57505050610ac5969593610a9b936103af61039d610ac098956103b5956111f0565b610ab060035c610aaa836117ad565b146109ad565b610ab86109c8565b610ac0610913565b6117cd565b7f828b6b75f8eb36fc3f87cd02f72d10004ad3e4e75bbbf59d45519b2e45c8710d610af96001600160a01b036103f26110c5565b0390a2565b80610b16610b0f6001938587610975565b358b611146565b610b35610b2f6020610b29848789610975565b0161098a565b8c611188565b01610a73565b15610b4257565b6330044a2f60e01b5f5260045ffd5b15610b5857565b633b545b4960e11b5f5260045ffd5b15610b6e57565b633265679f60e11b5f5260045ffd5b15610b8457565b6333b43e6360e21b5f5260045ffd5b60405190610ba260208361069f565b5f80835282815b828110610bb557505050565b602090604051610bc48161067f565b5f81525f8382015282828501015201610ba9565b15610bdf57565b63f7a632f560e01b5f5260045ffd5b906001820180921161094d57565b906004820180921161094d57565b9091906001600160401b039081167f000000000000000000000000000000000000000000000000000000000000000090911603610cf7577f00000000000000000000000000000000000000000000000000000000000000006001600160a01b03163303610ce85781604091810103126100e8577f486f38329a21a3c9baf0b1f47784e0a71252f04e52a644d9481e8ffabd030d5c610cae6020833593013592611839565b91610cb88361049b565b549281610cc48261049b565b556040805194855260208501929092526001600160a01b0316929081908101610af9565b63ea8e4eb560e01b5f5260045ffd5b63015f4fdd60e31b5f5260045ffd5b15610d0d57565b630101292160e31b5f5260045ffd5b6040513d5f823e3d90fd5b5f8054909291906001600160a01b0316803b156100e8575f8091600460405180948193630366237560e61b83525af1801561064957610dbc575b50825c6001600160a01b0316610d9b57610d8b9190835c6001600160a01b0319163317845d61185c565b805c6001600160a01b031916905d565b610dba92610db59033905c6001600160a01b031614610d06565b61185c565b565b610dc99193505f9061069f565b5f915f610d61565b15610dd857565b631ccdbfa560e21b5f5260045ffd5b908060209392818452848401375f828201840152601f01601f1916010190565b9180602084016020855252604083019060408160051b85010193835f91601e1982360301905b848410610e3e575050505050505090565b90919293949596603f198282030187528735838112156100e8578401602081019190356001600160401b0381116100e85780360383136100e857610e886020928392600195610de7565b99019701959401929190610e2d565b805180835260209291819084018484015e5f828201840152601f01601f1916010190565b90610ed3602091949394604084526040840190610e97565b6001600160a01b03909416910152565b6001600160401b03811161069a57601f01601f191660200190565b929192610f0a82610ee3565b91610f18604051938461069f565b8294818452818301116100e8578281602093845f960137010152565b60206040818301928281528451809452019201905f5b818110610f575750505090565b8251805185526020908101516001600160a01b03168186015260409094019390920191600101610f4a565b60405192959392602081019290916001600160fb1b0382116100e85782602091610fbe9360051b8091873781010301601f19810183528261069f565b51902093610fcb826106c2565b90610fd9604051928361069f565b82825260208201908360051b8101903682116100e85790818794935b82841061107d5750505050916110126110289261107795946112e7565b9260405161103681611028602082019485610f34565b03601f19810183528261069f565b51902060408051602081019889529081019490945260809590951b6001600160801b03191660608401526070830152609082019390935291829060b0820190565b51902090565b939450919290919083356001600160401b0381116100e857820136601f820112156100e8576020916110b6839236908481359101610efe565b81520193019190879493610ff5565b60015c6001600160a01b03161515806110f1575b156110ed5760015c6001600160a01b031690565b3390565b505f546001600160a01b031633146110d9565b9080939293611114575b50501490565b60051b810190915b602083359182811160051b9081521852602060405f2092019181831061111c579150505f8061110e565b604051602081019182526020815261115f60408261069f565b519020805c6001810180821161094d57825d810180911161094d576001810180911161094d575d565b610dba916001600160a01b031690611146565b91908110156109855760051b81013590601e19813603018212156100e85701803591906001600160401b0383116100e85760200182360381136100e8579190565b80518210156109855760209160051b010190565b9190916111fc836106c2565b611209604051918261069f565b838152601f19611218856106c2565b015f5b81811061126957505080935f5b8181106112355750505050565b8061124d611246600193858861119b565b3691610efe565b61125782866111dc565b5261126281856111dc565b5001611228565b80606060208093860101520161121b565b5f19811461094d5760010190565b90611292826106c2565b61129f604051918261069f565b82815280926112b0601f19916106c2565b0190602036910137565b80516020909101905f5b8181106112d15750505090565b82518452602093840193909201916001016112c4565b90915f905f5b8351811015611326576001811b85166001600160801b0316611312575b6001016112ed565b9161131e60019161127a565b92905061130a565b50919061133290611288565b905f935f5b82518110156113875760019081811b83166001600160801b031661135c575b01611337565b61136681856111dc565b516020815191012061138161137a8961127a565b98876111dc565b52611356565b505050909150604051611077816110286020820180956112ba565b91908110156109855760051b0190565b156113b957565b60405162461bcd60e51b815260206004820152601660248201527556616c7565206d75737420626520333220627974657360501b6044820152606490fd5b60208151910151906020811061140b575090565b5f199060200360031b1b1690565b3d15611443573d9061142a82610ee3565b91611438604051938461069f565b82523d5f602084013e565b606090565b6040519061145760408361069f565b60078252662ab735b737bbb760c91b6020830152565b9081526001600160a01b03909116602082015260606040820181905261099492910190610e97565b905f5b8181106114a55750505090565b6114b08183856113a2565b35906114de6114d86114d26114c58560201b90565b6001600160f81b03191690565b60f81c90565b60ff1690565b916040831615918261179757600101926114f98486886113a2565b356020905b600383166001810361165257505f918291906020851661163b5761152d916001600160e01b031987168c61196a565b805190602001826001600160a01b0387165af192611549611419565b935b84901561159f5750506080161561157c5761157792916115716114c56109259360581b90565b87611e3a565b611498565b9061157792956115926114c56115989460581b90565b90611d8f565b9360010190565b8592506115aa611448565b9460448151116115fa575b5050906115e7915f146115eb57925b60405163ef3dcb2f60e01b81529384936001600160a01b0316906004850161146d565b0390fd5b6115f49061093f565b926115c4565b6020611611600461160a84611b89565b93016113f7565b036115b557611622602483016113f7565b1461162e575b806115b5565b60440193506115e7611628565b50607f61164c9160f81c168a6111dc565b5161152d565b600281036116b557505f918291906020851661169e5761167d916001600160e01b031987168c61196a565b8051906020016001600160a01b0386165afa92611698611419565b9361154b565b50607f6116af9160f81c168a6111dc565b5161167d565b60030361175f575f91816116e66116d3607f869560f81c168d6111dc565b516116e160208251146113b2565b6113f7565b91602086161584146117385761170861170261171a9360081b90565b9161093f565b906001600160e01b031988168d61196a565b905b815191602001906001600160a01b0387165af192611698611419565b50607f6117516114d86114d26114c56117589560081b90565b168b6111dc565b519061171c565b60405162461bcd60e51b815260206004820152601060248201526f496e76616c69642063616c6c7479706560801b6044820152606490fd5b926006602883901b6001600160d01b03176114fe565b60405160208101918252602081526117c660408261069f565b5190205c90565b5f9060405160208101918252602081526117e860408261069f565b5190205d565b6001600160a01b039161180091611804565b1690565b604051602081019182526020815261181d60408261069f565b51902090810180911161094d576001810180911161094d575c90565b6001600160601b03811661184d5760601c90565b63e8bd165960e01b5f5260045ffd5b905f5b81811061186b57505050565b5f8061187883858761119b565b9081604051928392833781018381520390305af4611894611419565b90156118a3575060010161185f565b80519081156118b157602001fd5b632b9e168960e21b5f5260045ffd5b60405161016091906118d2838261069f565b600a815291601f1901366020840137565b602081016020825282518091526040820191602060408360051b8301019401925f915b83831061191557505050505090565b9091929394602080611933600193603f198682030187528951610e97565b97019301930191939290611906565b9061194c82610ee3565b611959604051918261069f565b82815280926112b0601f1991610ee3565b91939290935f5f915f9261197c6118c0565b906060935f905b878210611ad8575b505061199961199e91610bfc565b611942565b9760208901525f9060248901925f955b8787106119c057505050505050505050565b602087101561098557888b83891a6080811615611ab65760fe8103611a1b575050506020816001928752611a088d6119f783610bfc565b611a018b51610952565b918b611fe8565b875101601f1901955b01960195936119ae565b60fd819794959697145f14611a50575092611a4492868660019b948a9998978560209c5261213e565b50979195909594611a11565b60fc8103611a72575092611a4492868660019b948a9998978560209c52611ffa565b93611aaf888293611a9e602096607f6001999c9b9a1690611a9382826111dc565b5151978895526111dc565b5190611aa985610bfc565b91611fd6565b0195611a11565b60209250600193979150611ace607f8492168d6111dc565b5101518152611a11565b9093959160208510156109855786851a60ff8114611b75576080811615611b605760fe8103611b405750855115611b1e575b6020600191875101935b0196940190611983565b945060016020604051611b37816110288d8583016118e3565b96915050611b0a565b90611b549260019692602095968a8d611f07565b95919390939294611b14565b611b6f6020916001938c611e94565b93611b14565b50939650909492905061199961199e61198b565b908151604319810181811161094d579260445b828110611ba857505050565b815181101561098557818101602001516001600160f81b03191615611bcf57600101611b9c565b9293505050604319810190811161094d5790565b15611bea57565b60405162461bcd60e51b8152602060048201526013602482015272496e646578206f75742d6f662d626f756e647360681b6044820152606490fd5b15611c2c57565b60405162461bcd60e51b815260206004820152602860248201525f5160206123685f395f51905f52604482015267287374617469632960c01b6064820152608490fd5b15611c7657565b60405162461bcd60e51b815260206004820152602a60248201525f5160206123685f395f51905f52604482015269287661726961626c652960b01b6064820152608490fd5b6020818303126100e8578051906001600160401b0382116100e857019080601f830112156100e857815191611cef836106c2565b92611cfd604051948561069f565b80845260208085019160051b830101918383116100e85760208101915b838310611d2957505050505090565b82516001600160401b0381116100e857820185603f820112156100e857602081015191611d5583610ee3565b611d62604051918261069f565b83815260408385010188106100e8575f602085819660408397018386015e83010152815201920191611d1a565b91908060f81c60ff8114611e34576080811615611dfc5760fe8103611dc4575050610994915060208082518301019101611cbb565b602091611dda610fe092607f8751911610611be3565b82840193611dea84865114611c6f565b51601f1901845260f31c168301015290565b611e30929150607f1690611e1284518310611be3565b611e1f6020825114611c25565b611e2982856111dc565b52826111dc565b5090565b50505090565b9060f81c60ff8114611e8f578251906020820180921161094d57602092607f611e65611e7894611942565b921691611e7283836111dc565b526111dc565b51918051604084018184840160045afa5051910152565b505050565b611ea590607f6020939416906111dc565b515103611eb25760200190565b60405162461bcd60e51b815260206004820152602760248201527f537461746963207374617465207661726961626c6573206d75737420626520336044820152663220627974657360c81b6064820152608490fd5b90969594939260fd8103611f27575095611f2195966122cb565b90919293565b60fc8103611f3b575095611f2195966121e4565b9196509194939291611f5091607f16906111dc565b515180151580611fcb575b15611f67570160200191565b60405162461bcd60e51b815260206004820152603660248201527f44796e616d6963207374617465207661726961626c6573206d7573742062652060448201527561206d756c7469706c65206f6620333220627974657360501b6064820152608490fd5b50601f811615611f5b565b916020809185930101920160045afa50565b910160200190829060400160045afa50565b9193959692905f9461200c88846111dc565b51936024600180878b019b019b0198820101915b60208910612031575b505050505050565b80891a60808116156121155760fb810361204b5750612029565b60fd819c92959a9499969b93979c145f1461209c57509061207392918b89528a858b8961213e565b9260209a93926001928c969480919d939d97929d9e01970101985b019301979291939490612020565b60fc81036120d65750906120b792918b89528a858b89611ffa565b9260209a93926001928c969480919d939d97929d9e019701019861208e565b6020898b8e6001959f9e979896612109607f869716948d611a9e6120fa88886111dc565b515197889788978895526111dc565b019d019701019861208e565b602060019293979694998161213288607f999e99839616906111dc565b5101518b52019861208e565b9392919094956001019460208610156109855760206121789781612167607f868b1a16856111dc565b510151602482890101520194611ffa565b929391929091602090910190565b1561218d57565b60405162461bcd60e51b815260206004820152602960248201527f43616e6e6f74207573652073746174652066726f6d20696e736964652064796e604482015268616d6963207479706560b81b6064820152608490fd5b6001808501976020909601960194935f929091905b602087106122525760405162461bcd60e51b8152602060048201526024808201527f44796e616d6963207479706520776173206e6f742070726f7065726c7920636c6044820152631bdcd95960e21b6064820152608490fd5b80871a60808116156122b35760fb810361227a5750505061227390836111dc565b5293929190565b61229a949561229360fe839c949a969b959c1415612186565b888b611f07565b9197909692939192916001906020905b019301956121f9565b6122c560209160019399969a85611e94565b986122aa565b92919093946001019360208510156109855760206122ee607f83881a16866111dc565b515103612302576020611f219601936121e4565b60405162461bcd60e51b815260206004820152601d60248201527f4172726179206c656e677468206d7573742062652033322062797465730000006044820152606490fdfe771eb9290c4d542b02e24bc3222728c055d2c5679a46d3bd95e53a243e54d44f4f6e6c79206f6e652072657475726e2076616c7565207065726d69747465642070f734318cc5b49faa35b494ded8a481aae94a239ea7295224277eef51571de7","linkReferences":{}},"methodIdentifiers":{"balanceSheet()":"22285cf6","contractUpdater()":"ed15d960","gateway()":"116191b6","newExecutor(uint64)":"10f51353"},"id":3}