{"abi":[{"type":"function","name":"DOMAIN_SEPARATOR","inputs":[],"outputs":[{"name":"","type":"bytes32","internalType":"bytes32"}],"stateMutability":"view"},{"type":"function","name":"allowance","inputs":[{"name":"owner","type":"address","internalType":"address"},{"name":"spender","type":"address","internalType":"address"}],"outputs":[{"name":"","type":"uint256","internalType":"uint256"}],"stateMutability":"view"},{"type":"function","name":"approve","inputs":[{"name":"spender","type":"address","internalType":"address"},{"name":"amount","type":"uint256","internalType":"uint256"}],"outputs":[{"name":"","type":"bool","internalType":"bool"}],"stateMutability":"nonpayable"},{"type":"function","name":"balanceOf","inputs":[{"name":"owner","type":"address","internalType":"address"}],"outputs":[{"name":"","type":"uint256","internalType":"uint256"}],"stateMutability":"view"},{"type":"function","name":"decimals","inputs":[],"outputs":[{"name":"","type":"uint8","internalType":"uint8"}],"stateMutability":"view"},{"type":"function","name":"initialize","inputs":[{"name":"name_","type":"string","internalType":"string"},{"name":"symbol_","type":"string","internalType":"string"},{"name":"decimals_","type":"uint8","internalType":"uint8"}],"outputs":[],"stateMutability":"nonpayable"},{"type":"function","name":"name","inputs":[],"outputs":[{"name":"","type":"string","internalType":"string"}],"stateMutability":"view"},{"type":"function","name":"nonces","inputs":[{"name":"","type":"address","internalType":"address"}],"outputs":[{"name":"","type":"uint256","internalType":"uint256"}],"stateMutability":"view"},{"type":"function","name":"permit","inputs":[{"name":"owner","type":"address","internalType":"address"},{"name":"spender","type":"address","internalType":"address"},{"name":"value","type":"uint256","internalType":"uint256"},{"name":"deadline","type":"uint256","internalType":"uint256"},{"name":"v","type":"uint8","internalType":"uint8"},{"name":"r","type":"bytes32","internalType":"bytes32"},{"name":"s","type":"bytes32","internalType":"bytes32"}],"outputs":[],"stateMutability":"nonpayable"},{"type":"function","name":"symbol","inputs":[],"outputs":[{"name":"","type":"string","internalType":"string"}],"stateMutability":"view"},{"type":"function","name":"totalSupply","inputs":[],"outputs":[{"name":"","type":"uint256","internalType":"uint256"}],"stateMutability":"view"},{"type":"function","name":"transfer","inputs":[{"name":"to","type":"address","internalType":"address"},{"name":"amount","type":"uint256","internalType":"uint256"}],"outputs":[{"name":"","type":"bool","internalType":"bool"}],"stateMutability":"nonpayable"},{"type":"function","name":"transferFrom","inputs":[{"name":"from","type":"address","internalType":"address"},{"name":"to","type":"address","internalType":"address"},{"name":"amount","type":"uint256","internalType":"uint256"}],"outputs":[{"name":"","type":"bool","internalType":"bool"}],"stateMutability":"nonpayable"},{"type":"event","name":"Approval","inputs":[{"name":"owner","type":"address","indexed":true,"internalType":"address"},{"name":"spender","type":"address","indexed":true,"internalType":"address"},{"name":"value","type":"uint256","indexed":false,"internalType":"uint256"}],"anonymous":false},{"type":"event","name":"Transfer","inputs":[{"name":"from","type":"address","indexed":true,"internalType":"address"},{"name":"to","type":"address","indexed":true,"internalType":"address"},{"name":"value","type":"uint256","indexed":false,"internalType":"uint256"}],"anonymous":false}],"bytecode":{"object":"0x60808060405234601557610d75908161001a8239f35b5f80fdfe6080806040526004361015610012575f80fd5b5f3560e01c90816306fdde031461098057508063095ea7b31461091a5780631624f6c61461062157806318160ddd1461060457806323b872dd1461051d578063313ce567146104fd5780633644e515146104db57806370a08231146104a35780637ecebe001461046b57806395d89b41146103a4578063a9059cbb14610314578063d505accf146100ff5763dd62ed3e146100ab575f80fd5b346100fb5760403660031901126100fb576100c4610a36565b6100cc610a4c565b6001600160a01b039182165f908152600560209081526040808320949093168252928352819020549051908152f35b5f80fd5b346100fb5760e03660031901126100fb57610118610a36565b610120610a4c565b604435606435916084359260ff84168094036100fb574281106102d557610145610b12565b6001600160a01b039095165f818152600860205260409020805496919590915f1988146102c1576020945f9460809460018b01905560405190878201927f6e71edae12b1b97f4d1f60370fef10105fa2faae0126114a169c64845d6126c984528a604084015260018060a01b03169a8b6060840152898784015260a083015260c082015260c081526101d860e082610a62565b519020604051908682019261190160f01b84526022830152604282015260428152610204606282610a62565b519020906040519182528482015260a435604082015260c435606082015282805260015afa156102b6575f516001600160a01b0316801515806102ad575b15610277575f516020610d555f395f51905f52916020915f526005825260405f20855f5282528060405f2055604051908152a3005b60405162461bcd60e51b815260206004820152600e60248201526d24a72b20a624a22fa9a4a3a722a960911b6044820152606490fd5b50828114610242565b6040513d5f823e3d90fd5b634e487b7160e01b5f52601160045260245ffd5b60405162461bcd60e51b815260206004820152601760248201527614115493525517d11150511312539157d1561412549151604a1b6044820152606490fd5b346100fb5760403660031901126100fb5761032d610a36565b60243590335f5260046020526103478260405f2054610c48565b335f52600460205260405f205560018060a01b031690815f5260046020526103738160405f2054610ca0565b825f52600460205260405f20556040519081525f516020610d155f395f51905f5260203392a3602060405160018152f35b346100fb575f3660031901126100fb576040515f6001546103c481610ada565b808452906001811690811561044757506001146103fc575b6103f8836103ec81850382610a62565b60405191829182610a0c565b0390f35b60015f9081525f516020610d355f395f51905f52939250905b80821061042d575090915081016020016103ec6103dc565b919260018160209254838588010152019101909291610415565b60ff191660208086019190915291151560051b840190910191506103ec90506103dc565b346100fb5760203660031901126100fb576001600160a01b0361048c610a36565b165f526008602052602060405f2054604051908152f35b346100fb5760203660031901126100fb576001600160a01b036104c4610a36565b165f526004602052602060405f2054604051908152f35b346100fb575f3660031901126100fb5760206104f5610b12565b604051908152f35b346100fb575f3660031901126100fb57602060ff60025416604051908152f35b346100fb5760603660031901126100fb57610536610a36565b61053e610a4c565b6001600160a01b039091165f818152600560209081526040808320338452825290912054604435935f516020610d155f395f51905f52929185600182016105df575b5050835f52600482526105978560405f2054610c48565b845f526004835260405f205560018060a01b031693845f52600482526105c18160405f2054610ca0565b855f526004835260405f2055604051908152a3602060405160018152f35b6105e891610c48565b5f85815260058452604080822033835285529020558585610580565b346100fb575f3660031901126100fb576020600354604051908152f35b346100fb5760603660031901126100fb576004356001600160401b0381116100fb57610651903690600401610a85565b6024356001600160401b0381116100fb57610670903690600401610a85565b60443560ff81168091036100fb5760ff600954166108df5782516001600160401b038111610810576106a25f54610ada565b601f8111610890575b506020601f821160011461082f57819293945f92610824575b50508160011b915f199060031b1c1916175f555b81516001600160401b038111610810576106f3600154610ada565b601f81116107c0575b50602092601f821160011461075f57928192935f92610754575b50508160011b915f199060031b1c1916176001555b60ff19600254161760025546600655610742610b2c565b6007556009805460ff19166001179055005b015190508380610716565b601f1982169360015f52805f20915f5b8681106107a85750836001959610610790575b505050811b0160015561072b565b01515f1960f88460031b161c19169055838080610782565b9192602060018192868501518155019401920161076f565b60015f525f516020610d355f395f51905f52601f830160051c81019160208410610806575b601f0160051c01905b8181106107fb57506106fc565b5f81556001016107ee565b90915081906107e5565b634e487b7160e01b5f52604160045260245ffd5b0151905084806106c4565b601f198216905f8052805f20915f5b81811061087857509583600195969710610860575b505050811b015f556106d8565b01515f1960f88460031b161c19169055848080610853565b9192602060018192868b01518155019401920161083e565b5f80525f516020610cf55f395f51905f52601f830160051c810191602084106108d5575b601f0160051c01905b8181106108ca57506106ab565b5f81556001016108bd565b90915081906108b4565b60405162461bcd60e51b81526020600482015260136024820152721053149150511657d253925512505312569151606a1b6044820152606490fd5b346100fb5760403660031901126100fb57610933610a36565b335f8181526005602090815260408083206001600160a01b03909516808452948252918290206024359081905591519182525f516020610d555f395f51905f5291a3602060405160018152f35b346100fb575f3660031901126100fb575f5f5461099c81610ada565b808452906001811690811561044757506001146109c3576103f8836103ec81850382610a62565b5f8080525f516020610cf55f395f51905f52939250905b8082106109f2575090915081016020016103ec6103dc565b9192600181602092548385880101520191019092916109da565b602060409281835280519182918282860152018484015e5f828201840152601f01601f1916010190565b600435906001600160a01b03821682036100fb57565b602435906001600160a01b03821682036100fb57565b601f909101601f19168101906001600160401b0382119082101761081057604052565b81601f820112156100fb578035906001600160401b0382116108105760405192610ab9601f8401601f191660200185610a62565b828452602083830101116100fb57815f926020809301838601378301015290565b90600182811c92168015610b08575b6020831014610af457565b634e487b7160e01b5f52602260045260245ffd5b91607f1691610ae9565b6006544603610b215760075490565b610b29610b2c565b90565b6040515f905f549181610b3e84610ada565b9182825260208201946001811690815f14610c2c5750600114610be2575b610b6892500382610a62565b51902060405160208101917f8b73c3c69bb8fe3d512ecc4cf759cc79239f7b179b0ffacaa9a75d522b39400f835260408201527fc89efdaa54c0f20c7adf612882df0950f5a951637e0307cdcb4c672f298b8bc660608201524660808201523060a082015260a08152610bdc60c082610a62565b51902090565b505f80805290915f516020610cf55f395f51905f525b818310610c10575050906020610b6892820101610b5c565b6020919350806001915483858801015201910190918392610bf8565b60ff1916865250610b6892151560051b82016020019050610b5c565b90808210610c5c5781039081116102c15790565b60405162461bcd60e51b815260206004820152601c60248201527b45524332303a207375627472616374696f6e20756e646572666c6f7760201b6044820152606490fd5b908101908181116102c1578110610cb45790565b60405162461bcd60e51b815260206004820152601860248201527745524332303a206164646974696f6e206f766572666c6f7760401b6044820152606490fdfe290decd9548b62a8d60345a988386fc84ba6bc95484008f6362f93160ef3e563ddf252ad1be2c89b69c2b068fc378daa952ba7f163c4a11628f55a4df523b3efb10e2d527612073b26eecdfd717e6a320cf44b4afac2b0732d9fcbe2b7fa0cf68c5be1e5ebec7d5bd14f71427d1e84f3dd0314c0f7b2291e5b200ac8c7c3b925","linkReferences":{}},"methodIdentifiers":{"DOMAIN_SEPARATOR()":"3644e515","allowance(address,address)":"dd62ed3e","approve(address,uint256)":"095ea7b3","balanceOf(address)":"70a08231","decimals()":"313ce567","initialize(string,string,uint8)":"1624f6c6","name()":"06fdde03","nonces(address)":"7ecebe00","permit(address,address,uint256,uint256,uint8,bytes32,bytes32)":"d505accf","symbol()":"95d89b41","totalSupply()":"18160ddd","transfer(address,uint256)":"a9059cbb","transferFrom(address,address,uint256)":"23b872dd"},"id":20}